:100000000C9453000C947B000C947B000C947B00AC
:100010000C947B000C947B000C947B000C947B0074
:100020000C947B000C947B000C947B000C947B0064
:100030000C947B000C947B000C947B000C947B0054
:100040000C94D7010C947B000C9447020C94210271
:100050000C947B000C947B000C947B000C947B0034
:100060000C947B000C947B0000000000250028000D
:100070002B0000000000240027002A0004040404D0
:100080000404040402020202020203030303030342
:10009000010204081020408001020408102001021F
:1000A00004081020C40311241FBECFEFD8E0DEBF28
:1000B000CDBF21E0A2E2B1E001C01D92A83CB20791
:1000C000E1F711E0A0E0B1E0EAE6F8E002C0059057
:1000D0000D92A232B107D9F710E0C3E5D0E004C019
:1000E0002197FE010E942D04C235D107C9F70E9455
:1000F00079020C9433040C940000AF92BF92CF921B
:10010000DF92EF92FF920F931F93CF93DF936C01D7
:100110007B018B01040F151FEB015E01AE18BF08B8
:10012000C017D10759F06991D601ED91FC9101906A
:10013000F081E02DC6010995892B79F7C501DF9182
:10014000CF911F910F91FF90EF90DF90CF90BF90D4
:10015000AF900895FC01538D448D252F30E0842FFE
:1001600090E0821B930B541710F0CF9608950197DF
:100170000895FC01918D828D981761F0A28DAE0FCC
:10018000BF2FB11D5D968C91928D9F5F9F73928F53
:1001900090E008958FEF9FEF0895FC01918D828D7F
:1001A000981731F0828DE80FF11D858D90E008954C
:1001B0008FEF9FEF08952FB7F894809127019091CA
:1001C0002801A0912901B0912A012FBF809333010A
:1001D00090933401A0933501B09336018BE291E006
:1001E0000E94CD0097FF26C02FB7F8948091270179
:1001F00090912801A0912901B0912A012FBF40912F
:100200003301509134016091350170913601841BA6
:10021000950BA60BB70B40912F01509130016091C7
:1002200031017091320184179507A607B707B0F224
:100230008FEF9FEF0895FC01918D228D892F90E023
:10024000805C9F4F821B91098F73992708958BE2E1
:1002500091E00E941B0121E0892B09F420E0822F0C
:10026000089580E090E0892B29F00E9427018111F8
:100270000C9400000895FC01A48DA80FB92FB11DA6
:10028000A35ABF4F2C91848D90E001968F739927CC
:10029000848FA689B7892C93A089B1898C918370AA
:1002A00080648C93938D848D981306C00288F389A3
:1002B000E02D80818F7D80830895EF92FF920F93D0
:1002C0001F93CF93DF93EC0181E0888F9B8D8C8D02
:1002D00098131AC0E889F989808185FF15C09FB7F6
:1002E000F894EE89FF896083E889F98980818370B9
:1002F000806480839FBF81E090E0DF91CF911F9168
:100300000F91FF90EF900895F62E0B8D10E00F5F88
:100310001F4F0F731127E02E8C8D8E110CC00FB65E
:1003200007FCFACFE889F989808185FFF5CFCE01F6
:100330000E943B01F1CFEB8DEC0FFD2FF11DE35A35
:10034000FF4FF0829FB7F8940B8FEA89FB89808179
:100350008062CFCFCF93DF93EC01888D8823B9F0F3
:10036000AA89BB89E889F9898C9185FD03C08081C0
:1003700086FD0DC00FB607FCF7CF8C9185FFF2CF3D
:10038000808185FFEDCFCE010E943B01E9CFDF9157
:10039000CF910895FC0101900020E9F73197AF015A
:1003A000481B590BBC018BE291E00C947D001F921D
:1003B0000F920FB60F9211242F933F938F939F9319
:1003C000AF93BF938091270190912801A0912901BB
:1003D000B0912A013091260123E0230F2D3758F5E3
:1003E0000196A11DB11D20932601809327019093B2
:1003F0002801A0932901B0932A01809122019091B4
:100400002301A0912401B09125010196A11DB11DE8
:100410008093220190932301A0932401B09325019E
:10042000BF91AF919F918F913F912F910F900FBEF0
:100430000F901F90189526E8230F0296A11DB11D5D
:10044000D2CF1F920F920FB60F9211242F933F938A
:100450004F935F936F937F938F939F93AF93BF93CC
:10046000EF93FF938BE291E00E943B01FF91EF91AC
:10047000BF91AF919F918F917F916F915F914F91BC
:100480003F912F910F900FBE0F901F9018951F92C4
:100490000F920FB60F9211242F938F939F93EF9388
:1004A000FF93E0913B01F0913C018081E09141019B
:1004B000F091420182FD1BC09081809144018F5FC9
:1004C0008F7320914501821741F0E0914401F0E0E3
:1004D000E55DFE4F958F80934401FF91EF919F91D1
:1004E0008F912F910F900FBE0F901F9018958081C4
:1004F000F4CFCF93DF93CDB7DEB7A1970FB6F894C3
:10050000DEBF0FBECDBF789484B5826084BD84B554
:10051000816084BD85B5826085BD85B5816085BDFE
:1005200080916E00816080936E00109281008091B6
:10053000810082608093810080918100816080933E
:100540008100809180008160809380008091B10063
:1005500084608093B1008091B00081608093B0008E
:1005600080917A00846080937A0080917A00826022
:1005700080937A0080917A00816080937A008091E4
:100580007A00806880937A001092C100EDE9F0E073
:100590002491E9E8F0E08491882399F090E0880FB5
:1005A000991FFC01EE58FF4FA591B491FC01E85949
:1005B000FF4F859194918FB7F894EC91E22BEC93D7
:1005C0008FBFE0913B01F0913C0182E08083E0919C
:1005D0003701F09138011082E0913901F0913A0130
:1005E00080E1808310924301E0913F01F09140014E
:1005F00086E08083E0913D01F0913E018081806141
:100600008083E0913D01F0913E018081886080838C
:10061000E0913D01F0913E01808180688083E0910E
:100620003D01F0913E0180818F7D808384E690E0E2
:10063000A0E0B0E080932F0190933001A0933101AE
:10064000B09332018AE0482E512C612C712C90EE2F
:10065000392E20EC222E00E010E00E94DB00FC018D
:10066000C12CD12C760197FD40C08D32910521F02F
:10067000C0970A9708F080C0C12CD12C7601912C2C
:10068000E130F105D9F0ED32F10509F47AC0CF017E
:10069000C0970A9798F4AAE0B0E0A70196010E94DB
:1006A000F1036F01FF0FEE08FF08C60ED71EE81E0C
:1006B000F91E80E3C81AD108E108F1088BE291E045
:1006C0000E94B9000E94DB00FC01C0970A97C0F2AB
:1006D000E130F105A9F2992041F0F094E094D09432
:1006E000C094C11CD11CE11CF11C1C141D047CF520
:1006F0004601DD0CAA08BB0880922F0190923001C0
:10070000A0923101B092320182E191E00E94CA01CF
:1007100019A27E01E1E2EE0EF11CC501B401A301B4
:1007200092010E940B0449015A01605DF701629336
:100730007F0181149104A104B10479F7309719F075
:10074000CF010E94CA018FE191E00E94CA0135B831
:10075000000000000000000000000000000025B8BC
:100760000115110509F479CF0E942701882309F4A6
:1007700074CF0E94000071CF8BE291E00E94B9001B
:100780006CCF992493949ACFEBE2F1E0138212821A
:1007900088EE93E0A0E0B0E084839583A683B783DE
:1007A00084E091E09183808385EC90E09587848755
:1007B00084EC90E09787868780EC90E0918B808B2B
:1007C00081EC90E0938B828B82EC90E0958B848B14
:1007D00086EC90E0978B868B118E128E138E148E82
:1007E00008950E94FC03A59F900DB49F900DA49FB7
:1007F000800D911D11240895A29FB001B39FC001E7
:10080000A39F700D811D1124911DB29F700D811D3C
:100810001124911D0895A1E21A2EAA1BBB1BFD01F4
:100820000DC0AA1FBB1FEE1FFF1FA217B307E407CF
:10083000F50720F0A21BB30BE40BF50B661F771F27
:10084000881F991F1A9469F7609570958095909507
:100850009B01AC01BD01CF010895EE0FFF1F059074
:0A086000F491E02D0994F894FFCF05
:10086A00000000005D017D00AA00AA011B01B90079
:10087A00CD005052462073657420746F3A20000DE3
:02088A000A0062
:00000001FF
